{
  "contractName": "CFP",
  "abi": [
    {
      "inputs": [
        {
          "internalType": "bytes32",
          "name": "_callId",
          "type": "bytes32"
        },
        {
          "internalType": "uint256",
          "name": "_closingTime",
          "type": "uint256"
        }
      ],
      "stateMutability": "nonpayable",
      "type": "constructor"
    },
    {
      "anonymous": false,
      "inputs": [
        {
          "indexed": false,
          "internalType": "bytes32",
          "name": "proposal",
          "type": "bytes32"
        },
        {
          "indexed": false,
          "internalType": "address",
          "name": "sender",
          "type": "address"
        },
        {
          "indexed": false,
          "internalType": "uint256",
          "name": "blockNumber",
          "type": "uint256"
        }
      ],
      "name": "ProposalRegistered",
      "type": "event"
    },
    {
      "inputs": [
        {
          "internalType": "bytes32",
          "name": "proposal",
          "type": "bytes32"
        }
      ],
      "name": "proposalData",
      "outputs": [
        {
          "components": [
            {
              "internalType": "address",
              "name": "sender",
              "type": "address"
            },
            {
              "internalType": "uint256",
              "name": "blockNumber",
              "type": "uint256"
            },
            {
              "internalType": "uint256",
              "name": "timestamp",
              "type": "uint256"
            }
          ],
          "internalType": "struct CFP.ProposalData",
          "name": "",
          "type": "tuple"
        }
      ],
      "stateMutability": "view",
      "type": "function"
    },
    {
      "inputs": [
        {
          "internalType": "uint256",
          "name": "index",
          "type": "uint256"
        }
      ],
      "name": "proposals",
      "outputs": [
        {
          "internalType": "bytes32",
          "name": "",
          "type": "bytes32"
        }
      ],
      "stateMutability": "view",
      "type": "function"
    },
    {
      "inputs": [],
      "name": "closingTime",
      "outputs": [
        {
          "internalType": "uint256",
          "name": "",
          "type": "uint256"
        }
      ],
      "stateMutability": "view",
      "type": "function"
    },
    {
      "inputs": [],
      "name": "callId",
      "outputs": [
        {
          "internalType": "bytes32",
          "name": "",
          "type": "bytes32"
        }
      ],
      "stateMutability": "view",
      "type": "function"
    },
    {
      "inputs": [],
      "name": "creator",
      "outputs": [
        {
          "internalType": "address",
          "name": "",
          "type": "address"
        }
      ],
      "stateMutability": "view",
      "type": "function"
    },
    {
      "inputs": [],
      "name": "proposalCount",
      "outputs": [
        {
          "internalType": "uint256",
          "name": "",
          "type": "uint256"
        }
      ],
      "stateMutability": "view",
      "type": "function"
    },
    {
      "inputs": [
        {
          "internalType": "bytes32",
          "name": "proposal",
          "type": "bytes32"
        }
      ],
      "name": "registerProposal",
      "outputs": [],
      "stateMutability": "nonpayable",
      "type": "function"
    },
    {
      "inputs": [
        {
          "internalType": "bytes32",
          "name": "proposal",
          "type": "bytes32"
        },
        {
          "internalType": "address",
          "name": "sender",
          "type": "address"
        }
      ],
      "name": "registerProposalFor",
      "outputs": [],
      "stateMutability": "nonpayable",
      "type": "function"
    },
    {
      "inputs": [
        {
          "internalType": "bytes32",
          "name": "proposal",
          "type": "bytes32"
        }
      ],
      "name": "proposalTimestamp",
      "outputs": [
        {
          "internalType": "uint256",
          "name": "",
          "type": "uint256"
        }
      ],
      "stateMutability": "view",
      "type": "function"
    }
  ],
  "bytecode": "0x60806040523480156200001157600080fd5b5060405162000c5d38038062000c5d833981810160405281019062000037919062000150565b804281116200007d576040517f08c379a000000000000000000000000000000000000000000000000000000000815260040162000074906200021e565b60405180910390fd5b826000819055508160018190555033600260006101000a81548173ffffffffffffffffffffffffffffffffffffffff021916908373ffffffffffffffffffffffffffffffffffffffff16021790555050505062000240565b600080fd5b6000819050919050565b620000ef81620000da565b8114620000fb57600080fd5b50565b6000815190506200010f81620000e4565b92915050565b6000819050919050565b6200012a8162000115565b81146200013657600080fd5b50565b6000815190506200014a816200011f565b92915050565b600080604083850312156200016a5762000169620000d5565b5b60006200017a85828601620000fe565b92505060206200018d8582860162000139565b9150509250929050565b600082825260208201905092915050565b7f456c20636965727265206465206c6120636f6e766f6361746f726961206e6f2060008201527f707565646520657374617220656e20656c2070617361646f0000000000000000602082015250565b60006200020660388362000197565b91506200021382620001a8565b604082019050919050565b600060208201905081810360008301526200023981620001f7565b9050919050565b610a0d80620002506000396000f3fe608060405234801561001057600080fd5b50600436106100935760003560e01c80635dcfbcc2116100665780635dcfbcc2146101345780636424e719146101505780639c9cbf9c14610180578063d955cb001461019c578063da35c664146101ba57610093565b8063013cf08b1461009857806302d05d3f146100c85780633696b787146100e65780634b6753bc14610116575b600080fd5b6100b260048036038101906100ad91906105a9565b6101d8565b6040516100bf91906105ef565b60405180910390f35b6100d0610200565b6040516100dd919061064b565b60405180910390f35b61010060048036038101906100fb9190610692565b61022a565b60405161010d91906106ce565b60405180910390f35b61011e61024a565b60405161012b91906106ce565b60405180910390f35b61014e60048036038101906101499190610692565b610254565b005b61016a60048036038101906101659190610692565b610261565b6040516101779190610749565b60405180910390f35b61019a60048036038101906101959190610790565b6102f8565b005b6101a461037b565b6040516101b191906105ef565b60405180910390f35b6101c2610384565b6040516101cf91906106ce565b60405180910390f35b6000600482815481106101ee576101ed6107d0565b5b90600052602060002001549050919050565b6000600260009054906101000a900473ffffffffffffffffffffffffffffffffffffffff16905090565b600060036000838152602001908152602001600020600201549050919050565b6000600154905090565b61025e8133610391565b50565b610269610537565b600360008381526020019081526020016000206040518060600160405290816000820160009054906101000a900473ffffffffffffffffffffffffffffffffffffffff1673ffffffffffffffffffffffffffffffffffffffff1673ffffffffffffffffffffffffffffffffffffffff168152602001600182015481526020016002820154815250509050919050565b610300610200565b73ffffffffffffffffffffffffffffffffffffffff163373ffffffffffffffffffffffffffffffffffffffff161461036d576040517f08c379a000000000000000000000000000000000000000000000000000000000815260040161036490610882565b60405180910390fd5b6103778282610391565b5050565b60008054905090565b6000600480549050905090565b81600061039d8261022a565b146103dd576040517f08c379a00000000000000000000000000000000000000000000000000000000081526004016103d490610914565b60405180910390fd5b6103e561024a565b4210610426576040517f08c379a000000000000000000000000000000000000000000000000000000000815260040161041d90610980565b60405180910390fd5b600060405180606001604052808473ffffffffffffffffffffffffffffffffffffffff168152602001438152602001428152509050806003600086815260200190815260200160002060008201518160000160006101000a81548173ffffffffffffffffffffffffffffffffffffffff021916908373ffffffffffffffffffffffffffffffffffffffff160217905550602082015181600101556040820151816002015590505060048490806001815401808255809150506001900390600052602060002001600090919091909150557f1a26f048630a7f2b9229c19a042fe677bbbad402ecb8f3fa77f9c4a3f98cae94848443604051610529939291906109a0565b60405180910390a150505050565b6040518060600160405280600073ffffffffffffffffffffffffffffffffffffffff16815260200160008152602001600081525090565b600080fd5b6000819050919050565b61058681610573565b811461059157600080fd5b50565b6000813590506105a38161057d565b92915050565b6000602082840312156105bf576105be61056e565b5b60006105cd84828501610594565b91505092915050565b6000819050919050565b6105e9816105d6565b82525050565b600060208201905061060460008301846105e0565b92915050565b600073ffffffffffffffffffffffffffffffffffffffff82169050919050565b60006106358261060a565b9050919050565b6106458161062a565b82525050565b6000602082019050610660600083018461063c565b92915050565b61066f816105d6565b811461067a57600080fd5b50565b60008135905061068c81610666565b92915050565b6000602082840312156106a8576106a761056e565b5b60006106b68482850161067d565b91505092915050565b6106c881610573565b82525050565b60006020820190506106e360008301846106bf565b92915050565b6106f28161062a565b82525050565b61070181610573565b82525050565b60608201600082015161071d60008501826106e9565b50602082015161073060208501826106f8565b50604082015161074360408501826106f8565b50505050565b600060608201905061075e6000830184610707565b92915050565b61076d8161062a565b811461077857600080fd5b50565b60008135905061078a81610764565b92915050565b600080604083850312156107a7576107a661056e565b5b60006107b58582860161067d565b92505060206107c68582860161077b565b9150509250929050565b7f4e487b7100000000000000000000000000000000000000000000000000000000600052603260045260246000fd5b600082825260208201905092915050565b7f536f6c6f20656c2063726561646f72207075656465206861636572206573746160008201527f206c6c616d616461000000000000000000000000000000000000000000000000602082015250565b600061086c6028836107ff565b915061087782610810565b604082019050919050565b6000602082019050818103600083015261089b8161085f565b9050919050565b7f4c612070726f707565737461207961206861207369646f20726567697374726160008201527f6461000000000000000000000000000000000000000000000000000000000000602082015250565b60006108fe6022836107ff565b9150610909826108a2565b604082019050919050565b6000602082019050818103600083015261092d816108f1565b9050919050565b7f436f6e766f6361746f7269612063657272616461000000000000000000000000600082015250565b600061096a6014836107ff565b915061097582610934565b602082019050919050565b600060208201905081810360008301526109998161095d565b9050919050565b60006060820190506109b560008301866105e0565b6109c2602083018561063c565b6109cf60408301846106bf565b94935050505056fea2646970667358221220501b87514546100b56cb9da80d4192b80ae9dd1097ee352a233463e8e886d1ed64736f6c63430008130033",
  "immutableReferences": {},
  "source": "//SPDX-License-Identifier: MIT\npragma solidity ^0.8.19;\n\ncontract CFP {\n    // Evento que se emite cuando alguien registra una propuesta\n    event ProposalRegistered(\n        bytes32 proposal,\n        address sender,\n        uint256 blockNumber\n    );\n\n    // Estructura que representa una propuesta\n    struct ProposalData {\n        address sender;\n        uint256 blockNumber;\n        uint256 timestamp;\n    }\n\n    // Variables propias\n    bytes32 private CFPId;\n    uint256 private CFPClosingTime;\n    address private CFPCreator;\n\n    // Mapeo de propuestas\n    mapping(bytes32 => ProposalData) private proposalsMapping;\n    bytes32[] private proposalsIndex;\n\n\n    modifier validTimestamp(uint _timestamp) {\n        // Importante que la condicion sea > y no >=, ya que >= da error\n        require(_timestamp > block.timestamp, \"El cierre de la convocatoria no puede estar en el pasado\");\n        _;\n    }\n\n    modifier onlyCreator() {\n        require(msg.sender == creator(), \"Solo el creador puede hacer esta llamada\");\n        _;\n    }\n\n    modifier isOpen() {\n        require(block.timestamp < closingTime(), \"Convocatoria cerrada\");\n        _;\n    }\n\n    modifier proposalNotRegistered(bytes32 _proposal) {\n        require(proposalTimestamp(_proposal) == 0, \"La propuesta ya ha sido registrada\");\n        _;\n    }\n\n    // Devuelve los datos asociados con una propuesta\n    function proposalData(\n        bytes32 proposal\n    ) public view returns (ProposalData memory) {\n        return proposalsMapping[proposal];\n    }\n\n    // Devuelve la propuesta que est en la posicin `index` de la lista de propuestas registradas\n    function proposals(uint index) public view returns (bytes32) {\n        return proposalsIndex[index];\n    }\n\n    // Timestamp del cierre de la recepcin de propuestas\n    function closingTime() public view returns (uint256) {\n        return CFPClosingTime;\n    }\n\n    // Identificador de este llamado\n    function callId() public view returns (bytes32) {\n        return CFPId;\n    }\n\n    // Creador de este llamado\n    function creator() public view returns (address) {\n        return CFPCreator;\n    }\n\n    /** Construye un llamado con un identificador y un tiempo de cierre.\n     *  Si el `timestamp` del bloque actual es mayor o igual al tiempo de cierre especificado,\n     *  revierte con el mensaje \"El cierre de la convocatoria no puede estar en el pasado\".\n     */\n    constructor(bytes32 _callId, uint256 _closingTime) validTimestamp(_closingTime) {\n        // Seteamos las variables propias del CFP\n        CFPId = _callId;\n        CFPClosingTime = _closingTime;\n        CFPCreator = msg.sender;\n    }\n\n    // Devuelve la cantidad de propuestas presentadas\n    function proposalCount() public view returns (uint256) {\n        return proposalsIndex.length;\n    }\n\n    function _registerProposal(bytes32 proposal, address sender) private proposalNotRegistered(proposal) isOpen() {\n        // Genero una nueva propuesta en base a la propuesta que me envian\n        ProposalData memory newProposal = ProposalData({\n            sender: sender,\n            blockNumber: block.number,\n            timestamp: block.timestamp\n        });\n        proposalsMapping[proposal] = newProposal;\n        proposalsIndex.push(proposal);\n        emit ProposalRegistered(proposal, sender, block.number);\n    }\n\n    /** Permite registrar una propuesta espec.\n     *  Registra al emisor del mensaje como emisor de la propuesta.\n     *  Si el timestamp del bloque actual es mayor que el del cierre del llamado,\n     *  revierte con el error \"Convocatoria cerrada\"\n     *  Si ya se ha registrado una propuesta igual, revierte con el mensaje\n     *  \"La propuesta ya ha sido registrada\"\n     *  Emite el evento `ProposalRegistered`\n     */\n    function registerProposal(bytes32 proposal) public {\n        _registerProposal(proposal, msg.sender);\n    }\n\n    /** Permite registrar una propuesta especificando un emisor.\n     *  Slo puede ser ejecutada por el creador del llamado. Si no es as, revierte\n     *  con el mensaje \"Solo el creador puede hacer esta llamada\"\n     *  Si el timestamp del bloque actual es mayor que el del cierre del llamado,\n     *  revierte con el error \"Convocatoria cerrada\"\n     *  Si ya se ha registrado una propuesta igual, revierte con el mensaje\n     *  \"La propuesta ya ha sido registrada\"\n     *  Emite el evento `ProposalRegistered`\n     */\n    function registerProposalFor(bytes32 proposal, address sender) public onlyCreator() {\n        _registerProposal(proposal, sender);\n    }\n\n    /** Devuelve el timestamp en el que se ha registrado una propuesta.\n     *  Si la propuesta no est registrada, devuelve cero.\n     */\n    function proposalTimestamp(\n        bytes32 proposal\n    ) public view returns (uint256) {\n        return proposalsMapping[proposal].timestamp;\n    }\n}\n",
  "sourcePath": "/Users/agus/blockchain-iua/sepulveda/TP/9/contract/contracts/CFP.sol",
  "compiler": {
    "name": "solc",
    "version": "0.8.19+commit.7dd6d404.Emscripten.clang"
  },
  "schemaVersion": "3.4.16",
  "updatedAt": "2024-06-09T21:11:58.444Z",
  "devdoc": {
    "kind": "dev",
    "methods": {},
    "version": 1
  },
  "userdoc": {
    "kind": "user",
    "methods": {
      "constructor": {
        "notice": "Construye un llamado con un identificador y un tiempo de cierre.  Si el `timestamp` del bloque actual es mayor o igual al tiempo de cierre especificado,  revierte con el mensaje \"El cierre de la convocatoria no puede estar en el pasado\"."
      },
      "proposalTimestamp(bytes32)": {
        "notice": "Devuelve el timestamp en el que se ha registrado una propuesta.  Si la propuesta no est registrada, devuelve cero."
      },
      "registerProposal(bytes32)": {
        "notice": "Permite registrar una propuesta espec.  Registra al emisor del mensaje como emisor de la propuesta.  Si el timestamp del bloque actual es mayor que el del cierre del llamado,  revierte con el error \"Convocatoria cerrada\"  Si ya se ha registrado una propuesta igual, revierte con el mensaje  \"La propuesta ya ha sido registrada\"  Emite el evento `ProposalRegistered`"
      },
      "registerProposalFor(bytes32,address)": {
        "notice": "Permite registrar una propuesta especificando un emisor.  Slo puede ser ejecutada por el creador del llamado. Si no es as, revierte  con el mensaje \"Solo el creador puede hacer esta llamada\"  Si el timestamp del bloque actual es mayor que el del cierre del llamado,  revierte con el error \"Convocatoria cerrada\"  Si ya se ha registrado una propuesta igual, revierte con el mensaje  \"La propuesta ya ha sido registrada\"  Emite el evento `ProposalRegistered`"
      }
    },
    "version": 1
  }
}