{
  "contractName": "CFPFactory",
  "abi": [
    {
      "inputs": [],
      "stateMutability": "nonpayable",
      "type": "constructor"
    },
    {
      "inputs": [],
      "name": "AlreadyRegistered",
      "type": "error"
    },
    {
      "inputs": [],
      "name": "CallExists",
      "type": "error"
    },
    {
      "inputs": [],
      "name": "CallNotExists",
      "type": "error"
    },
    {
      "inputs": [],
      "name": "OnlyOwner",
      "type": "error"
    },
    {
      "inputs": [],
      "name": "Unauthorized",
      "type": "error"
    },
    {
      "anonymous": false,
      "inputs": [
        {
          "indexed": false,
          "internalType": "address",
          "name": "creator",
          "type": "address"
        },
        {
          "indexed": false,
          "internalType": "bytes32",
          "name": "callId",
          "type": "bytes32"
        },
        {
          "indexed": false,
          "internalType": "contract CFP",
          "name": "cfp",
          "type": "address"
        }
      ],
      "name": "CFPCreated",
      "type": "event"
    },
    {
      "inputs": [],
      "name": "owner",
      "outputs": [
        {
          "internalType": "address",
          "name": "",
          "type": "address"
        }
      ],
      "stateMutability": "view",
      "type": "function",
      "constant": true
    },
    {
      "inputs": [
        {
          "internalType": "bytes32",
          "name": "callId",
          "type": "bytes32"
        }
      ],
      "name": "calls",
      "outputs": [
        {
          "components": [
            {
              "internalType": "address",
              "name": "creator",
              "type": "address"
            },
            {
              "internalType": "contract CFP",
              "name": "cfp",
              "type": "address"
            },
            {
              "internalType": "bytes32",
              "name": "callId",
              "type": "bytes32"
            },
            {
              "internalType": "uint256",
              "name": "timestamp",
              "type": "uint256"
            }
          ],
          "internalType": "struct CFPFactory.CallForProposals",
          "name": "",
          "type": "tuple"
        }
      ],
      "stateMutability": "view",
      "type": "function",
      "constant": true
    },
    {
      "inputs": [
        {
          "internalType": "uint256",
          "name": "index",
          "type": "uint256"
        }
      ],
      "name": "creators",
      "outputs": [
        {
          "internalType": "address",
          "name": "",
          "type": "address"
        }
      ],
      "stateMutability": "view",
      "type": "function",
      "constant": true
    },
    {
      "inputs": [
        {
          "internalType": "bytes32",
          "name": "callId",
          "type": "bytes32"
        },
        {
          "internalType": "uint256",
          "name": "timestamp",
          "type": "uint256"
        },
        {
          "internalType": "address",
          "name": "creator",
          "type": "address"
        }
      ],
      "name": "_createFor",
      "outputs": [
        {
          "internalType": "contract CFP",
          "name": "",
          "type": "address"
        }
      ],
      "stateMutability": "nonpayable",
      "type": "function"
    },
    {
      "inputs": [
        {
          "internalType": "bytes32",
          "name": "callId",
          "type": "bytes32"
        },
        {
          "internalType": "uint256",
          "name": "timestamp",
          "type": "uint256"
        }
      ],
      "name": "create",
      "outputs": [
        {
          "internalType": "contract CFP",
          "name": "",
          "type": "address"
        }
      ],
      "stateMutability": "nonpayable",
      "type": "function"
    },
    {
      "inputs": [
        {
          "internalType": "bytes32",
          "name": "callId",
          "type": "bytes32"
        },
        {
          "internalType": "uint256",
          "name": "timestamp",
          "type": "uint256"
        },
        {
          "internalType": "address",
          "name": "creator",
          "type": "address"
        }
      ],
      "name": "createFor",
      "outputs": [
        {
          "internalType": "contract CFP",
          "name": "",
          "type": "address"
        }
      ],
      "stateMutability": "nonpayable",
      "type": "function"
    },
    {
      "inputs": [],
      "name": "creatorsCount",
      "outputs": [
        {
          "internalType": "uint256",
          "name": "",
          "type": "uint256"
        }
      ],
      "stateMutability": "view",
      "type": "function",
      "constant": true
    },
    {
      "inputs": [
        {
          "internalType": "address",
          "name": "creator",
          "type": "address"
        },
        {
          "internalType": "uint256",
          "name": "index",
          "type": "uint256"
        }
      ],
      "name": "createdBy",
      "outputs": [
        {
          "internalType": "bytes32",
          "name": "",
          "type": "bytes32"
        }
      ],
      "stateMutability": "view",
      "type": "function",
      "constant": true
    },
    {
      "inputs": [
        {
          "internalType": "address",
          "name": "creator",
          "type": "address"
        }
      ],
      "name": "createdByCount",
      "outputs": [
        {
          "internalType": "uint256",
          "name": "",
          "type": "uint256"
        }
      ],
      "stateMutability": "view",
      "type": "function",
      "constant": true
    },
    {
      "inputs": [
        {
          "internalType": "bytes32",
          "name": "callId",
          "type": "bytes32"
        },
        {
          "internalType": "bytes32",
          "name": "proposal",
          "type": "bytes32"
        }
      ],
      "name": "registerProposal",
      "outputs": [],
      "stateMutability": "nonpayable",
      "type": "function"
    },
    {
      "inputs": [],
      "name": "register",
      "outputs": [],
      "stateMutability": "nonpayable",
      "type": "function"
    },
    {
      "inputs": [
        {
          "internalType": "address",
          "name": "creator",
          "type": "address"
        }
      ],
      "name": "authorize",
      "outputs": [],
      "stateMutability": "nonpayable",
      "type": "function"
    },
    {
      "inputs": [
        {
          "internalType": "address",
          "name": "creator",
          "type": "address"
        }
      ],
      "name": "unauthorize",
      "outputs": [],
      "stateMutability": "nonpayable",
      "type": "function"
    },
    {
      "inputs": [],
      "name": "getAllPending",
      "outputs": [
        {
          "internalType": "address[]",
          "name": "",
          "type": "address[]"
        }
      ],
      "stateMutability": "view",
      "type": "function",
      "constant": true
    },
    {
      "inputs": [
        {
          "internalType": "uint256",
          "name": "index",
          "type": "uint256"
        }
      ],
      "name": "getPending",
      "outputs": [
        {
          "internalType": "address",
          "name": "",
          "type": "address"
        }
      ],
      "stateMutability": "view",
      "type": "function",
      "constant": true
    },
    {
      "inputs": [],
      "name": "pendingCount",
      "outputs": [
        {
          "internalType": "uint256",
          "name": "",
          "type": "uint256"
        }
      ],
      "stateMutability": "view",
      "type": "function",
      "constant": true
    },
    {
      "inputs": [
        {
          "internalType": "address",
          "name": "account",
          "type": "address"
        }
      ],
      "name": "isRegistered",
      "outputs": [
        {
          "internalType": "bool",
          "name": "",
          "type": "bool"
        }
      ],
      "stateMutability": "view",
      "type": "function",
      "constant": true
    },
    {
      "inputs": [
        {
          "internalType": "address",
          "name": "account",
          "type": "address"
        }
      ],
      "name": "isAuthorized",
      "outputs": [
        {
          "internalType": "bool",
          "name": "",
          "type": "bool"
        }
      ],
      "stateMutability": "view",
      "type": "function",
      "constant": true
    },
    {
      "inputs": [],
      "name": "callsList",
      "outputs": [
        {
          "components": [
            {
              "internalType": "address",
              "name": "creator",
              "type": "address"
            },
            {
              "internalType": "contract CFP",
              "name": "cfp",
              "type": "address"
            },
            {
              "internalType": "bytes32",
              "name": "callId",
              "type": "bytes32"
            },
            {
              "internalType": "uint256",
              "name": "timestamp",
              "type": "uint256"
            }
          ],
          "internalType": "struct CFPFactory.CallForProposals[]",
          "name": "",
          "type": "tuple[]"
        }
      ],
      "stateMutability": "view",
      "type": "function",
      "constant": true
    }
  ],
  "bytecode": "0x608060405234801561001057600080fd5b50336000806101000a81548173ffffffffffffffffffffffffffffffffffffffff021916908373ffffffffffffffffffffffffffffffffffffffff160217905550612dba806100606000396000f3fe60806040523480156200001157600080fd5b50600436106200013c5760003560e01c8063b711cf2811620000bd578063ea70b4af116200007b578063ea70b4af14620003a3578063f0b37c0414620003c5578063f112ba7214620003e5578063f80364c71462000407578063fe9fbb80146200043d576200013c565b8063b711cf2814620002a9578063c3c5a54714620002df578063cd53d08e1462000315578063cff10265146200034b578063e46bda541462000381576200013c565b80638da5cb5b116200010b5780638da5cb5b14620001d9578063a042c13214620001fb578063ab4f48c41462000231578063b3ca7aee1462000267578063b6a5d7de1462000289576200013c565b80631aa3a008146200014157806369eef6ca146200014d5780636a87d805146200018357806384f89a9314620001a3575b600080fd5b6200014b62000473565b005b6200016b60048036038101906200016591906200195c565b620005f6565b6040516200017a919062001a23565b60405180910390f35b620001a160048036038101906200019b919062001a40565b6200096e565b005b620001c16004803603810190620001bb919062001a87565b62000ab8565b604051620001d0919062001aca565b60405180910390f35b620001e362000b8a565b604051620001f2919062001aca565b60405180910390f35b62000219600480360381019062000213919062001ae7565b62000bb3565b60405162000228919062001a23565b60405180910390f35b6200024f60048036038101906200024991906200195c565b62000cad565b6040516200025e919062001a23565b60405180910390f35b6200027162000e2e565b60405162000280919062001c8c565b60405180910390f35b620002a76004803603810190620002a1919062001cb0565b62000f4f565b005b620002c76004803603810190620002c1919062001cb0565b6200104e565b604051620002d6919062001cf3565b60405180910390f35b620002fd6004803603810190620002f7919062001cb0565b6200109a565b6040516200030c919062001d2d565b60405180910390f35b6200033360048036038101906200032d919062001a87565b6200119e565b60405162000342919062001aca565b60405180910390f35b62000369600480360381019062000363919062001d4a565b620011e9565b60405162000378919062001dd9565b60405180910390f35b6200038b620012d8565b6040516200039a919062001cf3565b60405180910390f35b620003ad620012e5565b604051620003bc919062001cf3565b60405180910390f35b620003e36004803603810190620003dd919062001cb0565b62001379565b005b620003ef62001477565b604051620003fe919062001eb3565b60405180910390f35b6200042560048036038101906200041f919062001ed7565b6200158d565b60405162000434919062001f2f565b60405180910390f35b6200045b600480360381019062000455919062001cb0565b620015f6565b6040516200046a919062001d2d565b60405180910390f35b33600060038111156200048b576200048a62001f4c565b5b600260008373ffffffffffffffffffffffffffffffffffffffff1673ffffffffffffffffffffffffffffffffffffffff16815260200190815260200160002060009054906101000a900460ff166003811115620004ed57620004ec62001f4c565b5b1462000525576040517f3a81d6fc00000000000000000000000000000000000000000000000000000000815260040160405180910390fd5b6001600260003373ffffffffffffffffffffffffffffffffffffffff1673ffffffffffffffffffffffffffffffffffffffff16815260200190815260200160002060006101000a81548160ff021916908360038111156200058b576200058a62001f4c565b5b02179055506005339080600181540180825580915050600190039060005260206000200160009091909190916101000a81548173ffffffffffffffffffffffffffffffffffffffff021916908373ffffffffffffffffffffffffffffffffffffffff16021790555050565b6000808484604051620006099062001817565b6200061692919062001f7b565b604051809103906000f08015801562000633573d6000803e3d6000fd5b509050600060405180608001604052808573ffffffffffffffffffffffffffffffffffffffff1681526020018373ffffffffffffffffffffffffffffffffffffffff168152602001878152602001868152509050806001600088815260200190815260200160002060008201518160000160006101000a81548173ffffffffffffffffffffffffffffffffffffffff021916908373ffffffffffffffffffffffffffffffffffffffff16021790555060208201518160010160006101000a81548173ffffffffffffffffffffffffffffffffffffffff021916908373ffffffffffffffffffffffffffffffffffffffff1602179055506040820151816002015560608201518160030155905050600681908060018154018082558091505060019003906000526020600020906004020160009091909190915060008201518160000160006101000a81548173ffffffffffffffffffffffffffffffffffffffff021916908373ffffffffffffffffffffffffffffffffffffffff16021790555060208201518160010160006101000a81548173ffffffffffffffffffffffffffffffffffffffff021916908373ffffffffffffffffffffffffffffffffffffffff160217905550604082015181600201556060820151816003015550506000600360008673ffffffffffffffffffffffffffffffffffffffff1673ffffffffffffffffffffffffffffffffffffffff1681526020019081526020016000208054905003620008bf576004849080600181540180825580915050600190039060005260206000200160009091909190916101000a81548173ffffffffffffffffffffffffffffffffffffffff021916908373ffffffffffffffffffffffffffffffffffffffff1602179055505b600360008573ffffffffffffffffffffffffffffffffffffffff1673ffffffffffffffffffffffffffffffffffffffff1681526020019081526020016000208690806001815401808255809150506001900390600052602060002001600090919091909150557fc8e97c2f1b3ebe76aeef2bb679bcca3e5e5515fedd7c25a76b0929ad2b7c3ace8487846040516200095a9392919062001fa8565b60405180910390a181925050509392505050565b81600073ffffffffffffffffffffffffffffffffffffffff166001600083815260200190815260200160002060000160009054906101000a900473ffffffffffffffffffffffffffffffffffffffff1673ffffffffffffffffffffffffffffffffffffffff160362000a0c576040517f3066b91000000000000000000000000000000000000000000000000000000000815260040160405180910390fd5b6001600084815260200190815260200160002060010160009054906101000a900473ffffffffffffffffffffffffffffffffffffffff1673ffffffffffffffffffffffffffffffffffffffff16639c9cbf9c83336040518363ffffffff1660e01b815260040162000a7f92919062001fe5565b600060405180830381600087803b15801562000a9a57600080fd5b505af115801562000aaf573d6000803e3d6000fd5b50505050505050565b60008060009054906101000a900473ffffffffffffffffffffffffffffffffffffffff1673ffffffffffffffffffffffffffffffffffffffff163373ffffffffffffffffffffffffffffffffffffffff161462000b41576040517f5fc483c500000000000000000000000000000000000000000000000000000000815260040160405180910390fd5b6005828154811062000b585762000b5762002012565b5b9060005260206000200160009054906101000a900473ffffffffffffffffffffffffffffffffffffffff169050919050565b60008060009054906101000a900473ffffffffffffffffffffffffffffffffffffffff16905090565b600082600073ffffffffffffffffffffffffffffffffffffffff166001600083815260200190815260200160002060000160009054906101000a900473ffffffffffffffffffffffffffffffffffffffff1673ffffffffffffffffffffffffffffffffffffffff161462000c53576040517fa071633800000000000000000000000000000000000000000000000000000000815260040160405180910390fd5b3362000c5f81620015f6565b62000c96576040517f82b4290000000000000000000000000000000000000000000000000000000000815260040160405180910390fd5b62000ca3858533620005f6565b9250505092915050565b600083600073ffffffffffffffffffffffffffffffffffffffff166001600083815260200190815260200160002060000160009054906101000a900473ffffffffffffffffffffffffffffffffffffffff1673ffffffffffffffffffffffffffffffffffffffff161462000d4d576040517fa071633800000000000000000000000000000000000000000000000000000000815260040160405180910390fd5b60008054906101000a900473ffffffffffffffffffffffffffffffffffffffff1673ffffffffffffffffffffffffffffffffffffffff163373ffffffffffffffffffffffffffffffffffffffff161462000dd3576040517f5fc483c500000000000000000000000000000000000000000000000000000000815260040160405180910390fd5b8262000ddf81620015f6565b62000e16576040517f82b4290000000000000000000000000000000000000000000000000000000000815260040160405180910390fd5b62000e23868686620005f6565b925050509392505050565b60606006805480602002602001604051908101604052809291908181526020016000905b8282101562000f4657838290600052602060002090600402016040518060800160405290816000820160009054906101000a900473ffffffffffffffffffffffffffffffffffffffff1673ffffffffffffffffffffffffffffffffffffffff1673ffffffffffffffffffffffffffffffffffffffff1681526020016001820160009054906101000a900473ffffffffffffffffffffffffffffffffffffffff1673ffffffffffffffffffffffffffffffffffffffff1673ffffffffffffffffffffffffffffffffffffffff168152602001600282015481526020016003820154815250508152602001906001019062000e52565b50505050905090565b60008054906101000a900473ffffffffffffffffffffffffffffffffffffffff1673ffffffffffffffffffffffffffffffffffffffff163373ffffffffffffffffffffffffffffffffffffffff161462000fd5576040517f5fc483c500000000000000000000000000000000000000000000000000000000815260040160405180910390fd5b6003600260008373ffffffffffffffffffffffffffffffffffffffff1673ffffffffffffffffffffffffffffffffffffffff16815260200190815260200160002060006101000a81548160ff021916908360038111156200103b576200103a62001f4c565b5b02179055506200104b8162001678565b50565b6000600360008373ffffffffffffffffffffffffffffffffffffffff1673ffffffffffffffffffffffffffffffffffffffff168152602001908152602001600020805490509050919050565b600060016003811115620010b357620010b262001f4c565b5b600260008473ffffffffffffffffffffffffffffffffffffffff1673ffffffffffffffffffffffffffffffffffffffff16815260200190815260200160002060009054906101000a900460ff16600381111562001115576200111462001f4c565b5b148062001197575060038081111562001133576200113262001f4c565b5b600260008473ffffffffffffffffffffffffffffffffffffffff1673ffffffffffffffffffffffffffffffffffffffff16815260200190815260200160002060009054906101000a900460ff16600381111562001195576200119462001f4c565b5b145b9050919050565b600060048281548110620011b757620011b662002012565b5b9060005260206000200160009054906101000a900473ffffffffffffffffffffffffffffffffffffffff169050919050565b620011f362001825565b600160008381526020019081526020016000206040518060800160405290816000820160009054906101000a900473ffffffffffffffffffffffffffffffffffffffff1673ffffffffffffffffffffffffffffffffffffffff1673ffffffffffffffffffffffffffffffffffffffff1681526020016001820160009054906101000a900473ffffffffffffffffffffffffffffffffffffffff1673ffffffffffffffffffffffffffffffffffffffff1673ffffffffffffffffffffffffffffffffffffffff168152602001600282015481526020016003820154815250509050919050565b6000600480549050905090565b60008060009054906101000a900473ffffffffffffffffffffffffffffffffffffffff1673ffffffffffffffffffffffffffffffffffffffff163373ffffffffffffffffffffffffffffffffffffffff16146200136e576040517f5fc483c500000000000000000000000000000000000000000000000000000000815260040160405180910390fd5b600580549050905090565b60008054906101000a900473ffffffffffffffffffffffffffffffffffffffff1673ffffffffffffffffffffffffffffffffffffffff163373ffffffffffffffffffffffffffffffffffffffff1614620013ff576040517f5fc483c500000000000000000000000000000000000000000000000000000000815260040160405180910390fd5b60028060008373ffffffffffffffffffffffffffffffffffffffff1673ffffffffffffffffffffffffffffffffffffffff16815260200190815260200160002060006101000a81548160ff0219169083600381111562001464576200146362001f4c565b5b0217905550620014748162001678565b50565b606060008054906101000a900473ffffffffffffffffffffffffffffffffffffffff1673ffffffffffffffffffffffffffffffffffffffff163373ffffffffffffffffffffffffffffffffffffffff1614620014ff576040517f5fc483c500000000000000000000000000000000000000000000000000000000815260040160405180910390fd5b60058054806020026020016040519081016040528092919081815260200182805480156200158357602002820191906000526020600020905b8160009054906101000a900473ffffffffffffffffffffffffffffffffffffffff1673ffffffffffffffffffffffffffffffffffffffff168152602001906001019080831162001538575b5050505050905090565b6000600360008473ffffffffffffffffffffffffffffffffffffffff1673ffffffffffffffffffffffffffffffffffffffff1681526020019081526020016000208281548110620015e357620015e262002012565b5b9060005260206000200154905092915050565b60006003808111156200160e576200160d62001f4c565b5b600260008473ffffffffffffffffffffffffffffffffffffffff1673ffffffffffffffffffffffffffffffffffffffff16815260200190815260200160002060009054906101000a900460ff16600381111562001670576200166f62001f4c565b5b149050919050565b60005b60058054905081101562001813578173ffffffffffffffffffffffffffffffffffffffff1660058281548110620016b757620016b662002012565b5b9060005260206000200160009054906101000a900473ffffffffffffffffffffffffffffffffffffffff1673ffffffffffffffffffffffffffffffffffffffff1603620017fd576005600160058054905062001714919062002070565b8154811062001728576200172762002012565b5b9060005260206000200160009054906101000a900473ffffffffffffffffffffffffffffffffffffffff16600582815481106200176a576200176962002012565b5b9060005260206000200160006101000a81548173ffffffffffffffffffffffffffffffffffffffff021916908373ffffffffffffffffffffffffffffffffffffffff1602179055506005805480620017c757620017c6620020ab565b5b6001900381819060005260206000200160006101000a81549073ffffffffffffffffffffffffffffffffffffffff021916905590555b80806200180a90620020da565b9150506200167b565b5050565b610c5d806200212883390190565b6040518060800160405280600073ffffffffffffffffffffffffffffffffffffffff168152602001600073ffffffffffffffffffffffffffffffffffffffff16815260200160008019168152602001600081525090565b600080fd5b6000819050919050565b620018968162001881565b8114620018a257600080fd5b50565b600081359050620018b6816200188b565b92915050565b6000819050919050565b620018d181620018bc565b8114620018dd57600080fd5b50565b600081359050620018f181620018c6565b92915050565b600073ffffffffffffffffffffffffffffffffffffffff82169050919050565b60006200192482620018f7565b9050919050565b620019368162001917565b81146200194257600080fd5b50565b60008135905062001956816200192b565b92915050565b6000806000606084860312156200197857620019776200187c565b5b60006200198886828701620018a5565b93505060206200199b86828701620018e0565b9250506040620019ae8682870162001945565b9150509250925092565b6000819050919050565b6000620019e3620019dd620019d784620018f7565b620019b8565b620018f7565b9050919050565b6000620019f782620019c2565b9050919050565b600062001a0b82620019ea565b9050919050565b62001a1d81620019fe565b82525050565b600060208201905062001a3a600083018462001a12565b92915050565b6000806040838503121562001a5a5762001a596200187c565b5b600062001a6a85828601620018a5565b925050602062001a7d85828601620018a5565b9150509250929050565b60006020828403121562001aa05762001a9f6200187c565b5b600062001ab084828501620018e0565b91505092915050565b62001ac48162001917565b82525050565b600060208201905062001ae1600083018462001ab9565b92915050565b6000806040838503121562001b015762001b006200187c565b5b600062001b1185828601620018a5565b925050602062001b2485828601620018e0565b9150509250929050565b600081519050919050565b600082825260208201905092915050565b6000819050602082019050919050565b62001b658162001917565b82525050565b62001b7681620019fe565b82525050565b62001b878162001881565b82525050565b62001b9881620018bc565b82525050565b60808201600082015162001bb6600085018262001b5a565b50602082015162001bcb602085018262001b6b565b50604082015162001be0604085018262001b7c565b50606082015162001bf5606085018262001b8d565b50505050565b600062001c09838362001b9e565b60808301905092915050565b6000602082019050919050565b600062001c2f8262001b2e565b62001c3b818562001b39565b935062001c488362001b4a565b8060005b8381101562001c7f57815162001c63888262001bfb565b975062001c708362001c15565b92505060018101905062001c4c565b5085935050505092915050565b6000602082019050818103600083015262001ca8818462001c22565b905092915050565b60006020828403121562001cc95762001cc86200187c565b5b600062001cd98482850162001945565b91505092915050565b62001ced81620018bc565b82525050565b600060208201905062001d0a600083018462001ce2565b92915050565b60008115159050919050565b62001d278162001d10565b82525050565b600060208201905062001d44600083018462001d1c565b92915050565b60006020828403121562001d635762001d626200187c565b5b600062001d7384828501620018a5565b91505092915050565b60808201600082015162001d94600085018262001b5a565b50602082015162001da9602085018262001b6b565b50604082015162001dbe604085018262001b7c565b50606082015162001dd3606085018262001b8d565b50505050565b600060808201905062001df0600083018462001d7c565b92915050565b600081519050919050565b600082825260208201905092915050565b6000819050602082019050919050565b600062001e30838362001b5a565b60208301905092915050565b6000602082019050919050565b600062001e568262001df6565b62001e62818562001e01565b935062001e6f8362001e12565b8060005b8381101562001ea657815162001e8a888262001e22565b975062001e978362001e3c565b92505060018101905062001e73565b5085935050505092915050565b6000602082019050818103600083015262001ecf818462001e49565b905092915050565b6000806040838503121562001ef15762001ef06200187c565b5b600062001f018582860162001945565b925050602062001f1485828601620018e0565b9150509250929050565b62001f298162001881565b82525050565b600060208201905062001f46600083018462001f1e565b92915050565b7f4e487b7100000000000000000000000000000000000000000000000000000000600052602160045260246000fd5b600060408201905062001f92600083018562001f1e565b62001fa1602083018462001ce2565b9392505050565b600060608201905062001fbf600083018662001ab9565b62001fce602083018562001f1e565b62001fdd604083018462001a12565b949350505050565b600060408201905062001ffc600083018562001f1e565b6200200b602083018462001ab9565b9392505050565b7f4e487b7100000000000000000000000000000000000000000000000000000000600052603260045260246000fd5b7f4e487b7100000000000000000000000000000000000000000000000000000000600052601160045260246000fd5b60006200207d82620018bc565b91506200208a83620018bc565b9250828203905081811115620020a557620020a462002041565b5b92915050565b7f4e487b7100000000000000000000000000000000000000000000000000000000600052603160045260246000fd5b6000620020e782620018bc565b91507fffffffffffffffffffffffffffffffffffffffffffffffffffffffffffffffff82036200211c576200211b62002041565b5b60018201905091905056fe60806040523480156200001157600080fd5b5060405162000c5d38038062000c5d833981810160405281019062000037919062000150565b804281116200007d576040517f08c379a000000000000000000000000000000000000000000000000000000000815260040162000074906200021e565b60405180910390fd5b826000819055508160018190555033600260006101000a81548173ffffffffffffffffffffffffffffffffffffffff021916908373ffffffffffffffffffffffffffffffffffffffff16021790555050505062000240565b600080fd5b6000819050919050565b620000ef81620000da565b8114620000fb57600080fd5b50565b6000815190506200010f81620000e4565b92915050565b6000819050919050565b6200012a8162000115565b81146200013657600080fd5b50565b6000815190506200014a816200011f565b92915050565b600080604083850312156200016a5762000169620000d5565b5b60006200017a85828601620000fe565b92505060206200018d8582860162000139565b9150509250929050565b600082825260208201905092915050565b7f456c20636965727265206465206c6120636f6e766f6361746f726961206e6f2060008201527f707565646520657374617220656e20656c2070617361646f0000000000000000602082015250565b60006200020660388362000197565b91506200021382620001a8565b604082019050919050565b600060208201905081810360008301526200023981620001f7565b9050919050565b610a0d80620002506000396000f3fe608060405234801561001057600080fd5b50600436106100935760003560e01c80635dcfbcc2116100665780635dcfbcc2146101345780636424e719146101505780639c9cbf9c14610180578063d955cb001461019c578063da35c664146101ba57610093565b8063013cf08b1461009857806302d05d3f146100c85780633696b787146100e65780634b6753bc14610116575b600080fd5b6100b260048036038101906100ad91906105a9565b6101d8565b6040516100bf91906105ef565b60405180910390f35b6100d0610200565b6040516100dd919061064b565b60405180910390f35b61010060048036038101906100fb9190610692565b61022a565b60405161010d91906106ce565b60405180910390f35b61011e61024a565b60405161012b91906106ce565b60405180910390f35b61014e60048036038101906101499190610692565b610254565b005b61016a60048036038101906101659190610692565b610261565b6040516101779190610749565b60405180910390f35b61019a60048036038101906101959190610790565b6102f8565b005b6101a461037b565b6040516101b191906105ef565b60405180910390f35b6101c2610384565b6040516101cf91906106ce565b60405180910390f35b6000600482815481106101ee576101ed6107d0565b5b90600052602060002001549050919050565b6000600260009054906101000a900473ffffffffffffffffffffffffffffffffffffffff16905090565b600060036000838152602001908152602001600020600201549050919050565b6000600154905090565b61025e8133610391565b50565b610269610537565b600360008381526020019081526020016000206040518060600160405290816000820160009054906101000a900473ffffffffffffffffffffffffffffffffffffffff1673ffffffffffffffffffffffffffffffffffffffff1673ffffffffffffffffffffffffffffffffffffffff168152602001600182015481526020016002820154815250509050919050565b610300610200565b73ffffffffffffffffffffffffffffffffffffffff163373ffffffffffffffffffffffffffffffffffffffff161461036d576040517f08c379a000000000000000000000000000000000000000000000000000000000815260040161036490610882565b60405180910390fd5b6103778282610391565b5050565b60008054905090565b6000600480549050905090565b81600061039d8261022a565b146103dd576040517f08c379a00000000000000000000000000000000000000000000000000000000081526004016103d490610914565b60405180910390fd5b6103e561024a565b4210610426576040517f08c379a000000000000000000000000000000000000000000000000000000000815260040161041d90610980565b60405180910390fd5b600060405180606001604052808473ffffffffffffffffffffffffffffffffffffffff168152602001438152602001428152509050806003600086815260200190815260200160002060008201518160000160006101000a81548173ffffffffffffffffffffffffffffffffffffffff021916908373ffffffffffffffffffffffffffffffffffffffff160217905550602082015181600101556040820151816002015590505060048490806001815401808255809150506001900390600052602060002001600090919091909150557f1a26f048630a7f2b9229c19a042fe677bbbad402ecb8f3fa77f9c4a3f98cae94848443604051610529939291906109a0565b60405180910390a150505050565b6040518060600160405280600073ffffffffffffffffffffffffffffffffffffffff16815260200160008152602001600081525090565b600080fd5b6000819050919050565b61058681610573565b811461059157600080fd5b50565b6000813590506105a38161057d565b92915050565b6000602082840312156105bf576105be61056e565b5b60006105cd84828501610594565b91505092915050565b6000819050919050565b6105e9816105d6565b82525050565b600060208201905061060460008301846105e0565b92915050565b600073ffffffffffffffffffffffffffffffffffffffff82169050919050565b60006106358261060a565b9050919050565b6106458161062a565b82525050565b6000602082019050610660600083018461063c565b92915050565b61066f816105d6565b811461067a57600080fd5b50565b60008135905061068c81610666565b92915050565b6000602082840312156106a8576106a761056e565b5b60006106b68482850161067d565b91505092915050565b6106c881610573565b82525050565b60006020820190506106e360008301846106bf565b92915050565b6106f28161062a565b82525050565b61070181610573565b82525050565b60608201600082015161071d60008501826106e9565b50602082015161073060208501826106f8565b50604082015161074360408501826106f8565b50505050565b600060608201905061075e6000830184610707565b92915050565b61076d8161062a565b811461077857600080fd5b50565b60008135905061078a81610764565b92915050565b600080604083850312156107a7576107a661056e565b5b60006107b58582860161067d565b92505060206107c68582860161077b565b9150509250929050565b7f4e487b7100000000000000000000000000000000000000000000000000000000600052603260045260246000fd5b600082825260208201905092915050565b7f536f6c6f20656c2063726561646f72207075656465206861636572206573746160008201527f206c6c616d616461000000000000000000000000000000000000000000000000602082015250565b600061086c6028836107ff565b915061087782610810565b604082019050919050565b6000602082019050818103600083015261089b8161085f565b9050919050565b7f4c612070726f707565737461207961206861207369646f20726567697374726160008201527f6461000000000000000000000000000000000000000000000000000000000000602082015250565b60006108fe6022836107ff565b9150610909826108a2565b604082019050919050565b6000602082019050818103600083015261092d816108f1565b9050919050565b7f436f6e766f6361746f7269612063657272616461000000000000000000000000600082015250565b600061096a6014836107ff565b915061097582610934565b602082019050919050565b600060208201905081810360008301526109998161095d565b9050919050565b60006060820190506109b560008301866105e0565b6109c2602083018561063c565b6109cf60408301846106bf565b94935050505056fea2646970667358221220501b87514546100b56cb9da80d4192b80ae9dd1097ee352a233463e8e886d1ed64736f6c63430008130033a2646970667358221220904c18b1a5225505e5b1d54ed620048dd35acd9f91b1ef27910c75c39fbfb00b64736f6c63430008130033",
  "immutableReferences": {},
  "source": "// SPDX-License-Identifier: MIT\npragma solidity ^0.8.19;\n\nimport \"./CFP.sol\";\n\ncontract CFPFactory {\n    // Evento que se emite cuando se crea un llamado a presentacin de propuestas\n    event CFPCreated(address creator, bytes32 callId, CFP cfp);\n\n    // Errores personalizados\n    error Unauthorized();\n    error CallExists();\n    error CallNotExists();\n    error AlreadyRegistered();\n    error OnlyOwner();\n    \n    // Estructura que representa un llamado\n    struct CallForProposals {\n        address creator;\n        CFP cfp;\n        bytes32 callId;\n        uint timestamp;\n    }\n\n    enum status {\n        UNREGISTERED,\n        PENDING,\n        UNAUTHORIZED,\n        AUTHORIZED\n    }\n\n    address private factoryOwner;\n\n    mapping(bytes32 => CallForProposals) private callsMapping;  // Mapeo que asocia un identificador de llamado con un llamado\n    mapping(address => status) private statusMapping;           // Mapeo que asocia una direccin con su estado\n    mapping(address => bytes32[]) private CFPMapping;           // Mapeo que asocia una direccin con la lista de sus CFPs\n    address[] private creatorsArray;                            // Array con las direcciones de los creadores de CallsForProposals\n    address[] private registerPendingArray;                     // Array con las direcciones de los creadores pendientes de autorizacion\n\n    CallForProposals[] private CFPList;\n\n    constructor() {\n        factoryOwner = msg.sender;\n    }\n\n    modifier created(bytes32 callId) {\n        if (callsMapping[callId].creator == address(0)) {\n            revert CallNotExists();\n        }\n        _;\n    }\n\n    modifier notCreated(bytes32 callId) {\n        if (callsMapping[callId].creator != address(0)) {\n            revert CallExists();\n        }\n        _;\n    }\n\n    modifier authorized(address addr) {\n        if (!isAuthorized(addr)) {\n            revert Unauthorized();\n        }\n        _;\n    }\n\n    modifier ownerOnly() {\n        if (msg.sender != factoryOwner) {\n            revert OnlyOwner();\n        }\n        _;\n    }\n\n    modifier notRegistered(address account) {\n        if (statusMapping[account] != status.UNREGISTERED) {\n            revert AlreadyRegistered();\n        }\n        _;\n    }\n\n    // Direccin del dueo de la factora\n    function owner() public view returns (address) {\n        return factoryOwner;\n    }\n\n    // Devuelve el llamado asociado con un callId\n    function calls(bytes32 callId) public view returns (CallForProposals memory) {\n        return callsMapping[callId];\n    }\n\n    // Devuelve la direccin de un creador de la lista de creadores\n    function creators(uint index) public view returns (address) {\n        return creatorsArray[index];\n    }\n\n    function _createFor(bytes32 callId, uint timestamp, address creator) public returns (CFP) {\n        CFP cfp = new CFP(callId, timestamp);\n\n        // Creo un nuevo CFP y lo agrego al mapeo de CFPs\n        CallForProposals memory newCFP = CallForProposals({\n            creator: creator,\n            cfp: cfp,\n            callId: callId,\n            timestamp: timestamp\n        });\n        callsMapping[callId] = newCFP;\n        CFPList.push(newCFP);\n\n        // Si el creador no tiene ningun CFP, lo agrega al array de creadores\n        if (CFPMapping[creator].length == 0) {\n            creatorsArray.push(creator);\n        }\n\n        // Agrega el CFP al array de CFPs del creador\n        CFPMapping[creator].push(callId);\n\n        // Emito el evento de que se creo el CFP y devuelvo el CFP creado\n        emit CFPCreated(creator, callId, cfp);\n        return cfp;\n    }\n\n    /** Crea un llamado, con un identificador y un tiempo de cierre\n     *  Si ya existe un llamado con ese identificador, revierte con el mensaje de error \"El llamado ya existe\"\n     *  Si el emisor no est autorizado a crear llamados, revierte con el mensaje \"No autorizado\"\n     */\n    function create(bytes32 callId, uint256 timestamp) public notCreated(callId) authorized(msg.sender) returns (CFP) {\n        return _createFor(callId, timestamp, msg.sender);\n    }\n\n    /**\n     * Crea un llamado, estableciendo a `creator` como creador del mismo.\n     * Slo puede ser invocada por el dueo de la factora.\n     * Se comporta en todos los dems aspectos como `createFor(bytes32 callId, uint timestamp)`\n     */\n    function createFor(bytes32 callId, uint timestamp, address creator) public notCreated(callId) ownerOnly authorized(creator) returns (CFP) {\n        return _createFor(callId, timestamp, creator);\n    }\n\n    // Devuelve la cantidad de cuentas que han creado llamados.\n    function creatorsCount() public view returns (uint256) {\n        return creatorsArray.length;\n    }\n\n    /// Devuelve el identificador del llamado que est en la posicin `index` de la lista de llamados creados por `creator`\n    function createdBy(address creator, uint256 index) public view returns (bytes32) {\n        return CFPMapping[creator][index];\n    }\n\n    // Devuelve la cantidad de llamados creados por `creator`\n    function createdByCount(address creator) public view returns (uint256) {\n        return CFPMapping[creator].length;\n    }\n\n    /** Permite a un usuario registrar una propuesta, para un llamado con identificador `callId`.\n     *  Si el llamado no existe, revierte con el mensaje  \"El llamado no existe\".\n     *  Registra la propuesta en el llamado asociado con `callId` y pasa como creador la direccin del emisor del mensaje.\n     */\n    function registerProposal(bytes32 callId, bytes32 proposal) public created(callId) {\n        callsMapping[callId].cfp.registerProposalFor(proposal, msg.sender);\n    }\n\n    /** Permite que una cuenta se registre para poder crear llamados.\n     *  El registro queda en estado pendiente hasta que el dueo de la factora lo autorice.\n     *  Si ya se ha registrado, revierte con el mensaje \"Ya se ha registrado\"\n     */\n    function register() public notRegistered(msg.sender) {\n        statusMapping[msg.sender] = status.PENDING;\n        registerPendingArray.push(msg.sender);\n    }\n\n    function removeCreatorFromRegisterPendingArray(address creator) private {\n        for (uint i = 0; i < registerPendingArray.length; i++) {\n            if (registerPendingArray[i] == creator) {\n                registerPendingArray[i] = registerPendingArray[registerPendingArray.length - 1];\n                registerPendingArray.pop();\n            }\n        }\n    }\n\n    /** Autoriza a una cuenta a crear llamados.\n     *  Slo puede ser ejecutada por el dueo de la factora.\n     *  En caso contrario revierte con el mensaje \"Solo el creador puede hacer esta llamada\".\n     *  Si la cuenta se ha registrado y est pendiente, la quita de la lista de pendientes.\n     */\n    function authorize(address creator) public ownerOnly {\n        statusMapping[creator] = status.AUTHORIZED;\n        removeCreatorFromRegisterPendingArray(creator);\n    }\n\n    /** Quita la autorizacin de una cuenta para crear llamados.\n     *  Slo puede ser ejecutada por el dueo de la factora.\n     *  En caso contrario revierte con el mensaje \"Solo el creador puede hacer esta llamada\".\n     *  Si la cuenta se ha registrado y est pendiente, la quita de la lista de pendientes.\n     */\n    function unauthorize(address creator) public ownerOnly {\n        statusMapping[creator] = status.UNAUTHORIZED;\n        removeCreatorFromRegisterPendingArray(creator);\n    }\n\n    // Devuelve la lista de todas las registraciones pendientes.\n    // Slo puede ser ejecutada por el dueo de la factora\n    // En caso contrario revierte con el mensaje \"Solo el creador puede hacer esta llamada\".\n    function getAllPending() public view ownerOnly returns (address[] memory) {\n        return registerPendingArray;\n    }\n\n    // Devuelve la registracin pendiente con ndice `index`\n    // Slo puede ser ejecutada por el dueo de la factora\n    // En caso contrario revierte con el mensaje \"Solo el creador puede hacer esta llamada\".\n    function getPending(uint256 index) public view ownerOnly returns (address) {\n        return registerPendingArray[index];\n    }\n\n    // Devuelve la cantidad de registraciones pendientes.\n    // Slo puede ser ejecutada por el dueo de la factora\n    // En caso contrario revierte con el mensaje \"Solo el creador puede hacer esta llamada\".\n    function pendingCount() public view ownerOnly returns (uint256) {\n        return registerPendingArray.length;\n    }\n\n    // Devuelve verdadero si una cuenta se ha registrado, tanto si su estado es pendiente como si ya se la ha autorizado.\n    function isRegistered(address account) public view returns (bool) {\n        return (statusMapping[account] == status.PENDING || statusMapping[account] == status.AUTHORIZED);\n    }\n\n    // Devuelve verdadero si una cuenta est autorizada a crear llamados.\n    function isAuthorized(address account) public view returns (bool) {\n        return statusMapping[account] == status.AUTHORIZED;\n    }\n\n    // Devuelve la lista de CallsForProposals creados\n    // Necesaria para integrar una nueva funcion en la API\n    function callsList() public view returns (CallForProposals[] memory) {\n        return CFPList;\n    }\n}\n",
  "sourcePath": "/Users/agus/blockchain-iua/sepulveda/TP/9/contract/contracts/CFPFactory.sol",
  "compiler": {
    "name": "solc",
    "version": "0.8.19+commit.7dd6d404.Emscripten.clang"
  },
  "schemaVersion": "3.4.16",
  "updatedAt": "2024-06-09T21:11:59.273Z",
  "networkType": "ethereum",
  "devdoc": {
    "kind": "dev",
    "methods": {},
    "version": 1
  },
  "userdoc": {
    "kind": "user",
    "methods": {
      "authorize(address)": {
        "notice": "Autoriza a una cuenta a crear llamados.  Slo puede ser ejecutada por el dueo de la factora.  En caso contrario revierte con el mensaje \"Solo el creador puede hacer esta llamada\".  Si la cuenta se ha registrado y est pendiente, la quita de la lista de pendientes."
      },
      "create(bytes32,uint256)": {
        "notice": "Crea un llamado, con un identificador y un tiempo de cierre  Si ya existe un llamado con ese identificador, revierte con el mensaje de error \"El llamado ya existe\"  Si el emisor no est autorizado a crear llamados, revierte con el mensaje \"No autorizado\""
      },
      "createFor(bytes32,uint256,address)": {
        "notice": "Crea un llamado, estableciendo a `creator` como creador del mismo. Slo puede ser invocada por el dueo de la factora. Se comporta en todos los dems aspectos como `createFor(bytes32 callId, uint timestamp)`"
      },
      "createdBy(address,uint256)": {
        "notice": "Devuelve el identificador del llamado que est en la posicin `index` de la lista de llamados creados por `creator`"
      },
      "register()": {
        "notice": "Permite que una cuenta se registre para poder crear llamados.  El registro queda en estado pendiente hasta que el dueo de la factora lo autorice.  Si ya se ha registrado, revierte con el mensaje \"Ya se ha registrado\""
      },
      "registerProposal(bytes32,bytes32)": {
        "notice": "Permite a un usuario registrar una propuesta, para un llamado con identificador `callId`.  Si el llamado no existe, revierte con el mensaje  \"El llamado no existe\".  Registra la propuesta en el llamado asociado con `callId` y pasa como creador la direccin del emisor del mensaje."
      },
      "unauthorize(address)": {
        "notice": "Quita la autorizacin de una cuenta para crear llamados.  Slo puede ser ejecutada por el dueo de la factora.  En caso contrario revierte con el mensaje \"Solo el creador puede hacer esta llamada\".  Si la cuenta se ha registrado y est pendiente, la quita de la lista de pendientes."
      }
    },
    "version": 1
  }
}